:020000040800F2
:10000000681300205D0200086F020008D123000879
:100010006F0200086F0200086F0200080000000075
:100020000000000000000000000000006F02000857
:100030006F020008000000006F020008D163000892
:10004000000000006112000811120008511200089F
:10005000311200084112000821120008C1120008E4
:1000600071120008B112000891120008A1120008D4
:10007000811200086980000879800008C96B0008B7
:10008000D96B00083924000849240008F149000808
:10009000014A0008114A0008214A0008E11200083C
:1000A000F1120008D11200081113000821130008F2
:1000B00001130008E1340008411F0008511F000827
:1000C000611F0008711F0008811F000891200008AF
:1000D0006F0200086F0200086F0200086F0200083C
:1000E0006F020008911F000801200008112000087D
:1000F000212000083120000841200008512000087C
:10010000612000087120000881200008A11F00085C
:10011000B11F0008C11F0008D11F0008E11F00081F
:10012000F11F0008791B0008891B0008991B0008B3
:1001300061360008414A0008314A0008614A000857
:10014000514A000881130008713600086F02000848
:100150006F0200086F020008B13300083113000875
:1001600041130008511300086113000871180008BA
:100170008118000891480008A1480008B14800080B
:10018000691C0008791C000841490008C1480008A2
:10019000D1480008E1480008F1480008514900082A
:1001A00001490008114900082149000831490008A7
:1001B0009113000871130008411E000881590008BE
:1001C0009159000801120008891C0008D91C000878
:1001D000E91C0008F91C0008091D0008191D000889
:1001E000291D0008391D0008491D0008591D000877
:1001F000991C0008A91C0008B91C0008C91C0008AB
:10020000A91B0008D91B0008E91B0008F91B0008FE
:10021000091C0008191C0008291C0008391C0008CA
:10022000491C0008591C0008B91B0008C91B00081C
:10023000C16300088980000899800008A98000082F
:10024000B9800008C9800008DFF80CD000F07CF805
:1002500000480047C182000868130020044805498F
:100260000860DFF814D00548804705480047FEE7DE
:100270000000000808ED00E0681300203964000861
:10028000490200082DE9F05F0546002092469B4692
:1002900088460646814640241BE02846414647469C
:1002A000224600F041F853465A46C01A914110D3F5
:1002B00011461846224600F028F82D1A67EB01086F
:1002C0004F4622460120002100F01FF817EB0009DD
:1002D0004E41201EA4F10104DFDC484631462A4687
:1002E0004346BDE8F09FD2B201E000F8012B491E61
:1002F000FBD270470022F6E710B513460A460446C3
:100300001946FFF7F0FF204610BD202A04DB203AF3
:1003100000FA02F1002070479140C2F1200320FA58
:1003200003F3194390407047202A04DB203A21FA56
:1003300002F00021704721FA02F3D040C2F12002FE
:1003400091400843194670471CB509480090094878
:1003500001900546009C06E0E06840F0010394E847
:10036000070098471034AC42F6D3FFF771FF000046
:10037000749200089492000870B58C1810F8015B14
:1003800015F0070301D110F8013B2A1106D110F82E
:10039000012B03E010F8016B01F8016B5B1EF9D132
:1003A0002B0705D40023521E0DD401F8013BFAE7B8
:1003B00010F8013BCB1A921C03E013F8015B01F823
:1003C000015B521EF9D5A142D8D3002070BD0000B8
:1003D00010B54CF200041021C4F21004042220468F
:1003E00000F046FA002808BF10BD41F200000021CD
:1003F000C4F20000442204F057FC102104222046DD
:1004000000F03EF806F080F9BDE8104006F0ACBE02
:10041000B0B54CF200020446C4F210020D46904200
:1004200013D04DF20000C4F2100084420DD04EF201
:100430000000C4F21000844207D049F27C0040F66C
:100440000811C0F6000007F053FE3DB1D4F8E801F2
:1004500040EA0520C4F8E801B0BD00BF49F27C00C5
:1004600040F60911C0F6000007F042FED4F8E8019A
:1004700040EA0520C4F8E801B0BD0000000000001B
:1004800070B54CF200030446C4F2100316469842BD
:100490000D4613D04DF20000C4F2100084420DD07E
:1004A0004EF20000C4F21000844207D049F27C00F2
:1004B00040F2D751C0F6000007F01AFE3DB949F2EC
:1004C0007C004FF4BB61C0F6000007F011FE042E63
:1004D00010D84FF44070DFE806F00A040308070064
:1004E0002D044FF4417002E02D044FF44270215866
:1004F0002943215070BD0000B0B54CF20002044603
:10050000C4F210020D46904213D04DF20000C4F226
:10051000100084420DD04EF20000C4F2100084425C
:1005200007D049F27C0040F22111C0F6000007F02C
:10053000DFFD3DB949F27C004FF49171C0F6000037
:1005400007F0D6FDA06920F00200A061A06920F0AC
:100550000400A061206BA8432063B0BD0000000030
:10056000B0B54CF200020446C4F210020D469042AF
:1005700012D04DF20000C4F2100084420CD04EF2B2
:100580000000C4F21000844206D049F27C00F4213D
:10059000C0F6000007F0ACFD35B949F27C00F5214A
:1005A000C0F6000007F0A4FDA06940F00200A061C1
:1005B000A06940F00400A061206B28432063D4F8B8
:1005C0003C0240F00120C4F83C02B0BD0000000035
:1005D00070B54CF200030446C4F21003164698426C
:1005E0000D4613D04DF20000C4F2100084420DD02D
:1005F0004EF20000C4F21000844207D049F27C00A1
:1006000040F2E631C0F6000007F072FD3DB949F254
:100610007C0040F2E731C0F6000007F069FD042ECF
:1006200010D84FF43770DFE806F00A04030807001B
:100630002D044FF4387002E02D044FF43970215826
:100640002943215070BD0000B0B54CF20002C4F245
:100650001002904218D04DF20002C4F210029042F3
:1006600012D04EF20002C4F2100290420CD049F2B5
:100670007C020C46C0F6000240F26E210546104690
:1006800007F036FD21462846FF2900F331804A1E37
:100690003F2A00F25180DFE802F02121512151511F
:1006A000512151515151515151215151515151519A
:1006B000515151515151515151215151515151515A
:1006C000515151515151515151515151515151511A
:1006D0005151515151515151512100BF91FAA1F144
:1006E000B1FA81F100EB8100D0F8940200B2B0BD04
:1006F000B1F5805F0ADAB1F5806F11DAB1F5807F6C
:10070000ECD0B1F5007FE9D018E000BFB1F5804F23
:100710000CDAB1F5805FE1D0B1F5005FDED00DE01D
:10072000DCD0B1F5006FD9D008E000BFD6D0B1F56C
:10073000004FD3D002E000BF8029CFD049F27C0225
:100740000C46C0F6000240F26F210546104607F045
:10075000CFFC21462846C1E7B0B54CF20002C4F2F6
:100760001002904218D04DF20002C4F210029042E2
:1007700012D04EF20002C4F2100290420CD049F2A4
:100780007C020C46C0F6000240F2BD210546104630
:1007900007F0AEFC21462846FF2900F333804A1EAD
:1007A0003F2A00F25380DFE802F021215321535306
:1007B000532153535353535353215353535353536D
:1007C000535353535353535353215353535353532B
:1007D00053535353535353535353535353535353E9
:1007E0005353535353535353532100BF91FAA1F121
:1007F000B1FA81F100EB8100D0F89402C0F300401F
:10080000B0BD00BFB1F5805F0ADAB1F5806F11DAD3
:10081000B1F5807FEAD0B1F5007FE7D018E000BFE6
:10082000B1F5804F0CDAB1F5805FDFD0B1F5005F34
:10083000DCD00DE0DAD0B1F5006FD7D008E000BF12
:10084000D4D0B1F5004FD1D002E000BF8029CDD087
:1008500049F27C020C46C0F6000240F2BE21054679
:10086000104607F045FC21462846BFE7000000007F
:1008700070B54CF20003C4F2100398421AD04DF246
:100880000003C4F21003984214D04EF20003C4F2E5
:10089000100398420ED049F27C030C46C0F60003C8
:1008A00040F2065105461846164607F021FC32462E
:1008B00028462146FF2900F335804B1E3F2B00F2CE
:1008C0007380DFE803F02121732173737321737345
:1008D000737373737321737373737373737373733A
:1008E000737373737321737373737373737373732A
:1008F00073737373737373737373737373737373C8
:1009000073737373732100BF042A3FD8DFE802F0CA
:1009100004382A32220000BFD0F81803084018BF5C
:10092000012070BDB1F5805F0ADAB1F5806F2FDA72
:10093000B1F5807FE8D0B1F5007FE5D036E000BFAB
:10094000B1F5804F2ADAB1F5805FDDD0B1F5005FF7
:10095000DAD02BE0D0F8200310EA014018BF0120C4
:1009600070BD00BFD0F81C0310EA014018BF012081
:1009700070BD00BFD0F82003084018BF012070BD33
:10098000D0F81C03084018BF012070BD002070BDC6
:10099000BAD0B1F5006FB7D008E000BFB4D0B1F560
:1009A000004FB1D002E000BF8029ADD049F27C03F6
:1009B0000C46C0F6000340F207510546184616469D
:1009C00007F096FB3246284621469DE700000000CE
:1009D0002DE9F04F81B04CF200028146C4F21002C2
:1009E0000D46904212D04DF20000C4F21000814535
:1009F0000CD04EF20000C4F21000814506D049F23E
:100A00007C00AE21C0F6000007F072FB28880028A9
:100A100000F01681B5F80500B0F5807F00F21D8169
:100A2000287B112880F02481E87A112806D349F226
:100A30007C00B221C0F6000007F05AFB4FF6FF7BA6
:100A40000020CBF6017B4FF0040E4FF0080A40F275
:100A5000FF1C03E00430102800F0C680B5F80080C9
:100A6000012101FA00F717EA080F29D009EB8002EB
:100A7000536BE9782E7903EA0B03AC7843EAC15152
:100A800041EA464141EA84715163516BB5F8053042
:100A900021EA0C0119435163D9F84012AA7A4FF4A4
:100AA000803383408240994341EA0241C9F84012B1
:100AB000D9F840126A7AB94382401143C9F840120A
:100AC0002988022202FA00F70F422AD009EB80019E
:100AD0008A6BEB782C7902EA0B02AE7842EAC352B9
:100AE00042EA44424FF4003442EA86728A638A6BD7
:100AF000B5F8053022EA0C0284401A438A63D9F81B
:100B00004012AA7A431CA1439A4041EA0241C9F823
:100B10004012D9F840126A7AB9439A401143C9F891
:100B2000401229880EFA00F70F422AD009EB800103
:100B3000CA6BEB782C7902EA0B02AE7842EAC35218
:100B400042EA44424FF4802442EA8672CA63CA6B86
:100B5000B5F8053022EA0C0284401A43CA63D9F87A
:100B60004012AA7A831CA1439A4041EA0241C9F883
:100B70004012D9F840126A7AB9439A401143C9F831
:100B8000401229880AFA00F70F423FF463AF09EBDD
:100B900080010A6CEB782C7902EA0B02AE7842EA0B
:100BA000C35242EA44424FF4002442EA86720A6485
:100BB0000A6CB5F8053022EA0C0284401A430A6434
:100BC000D9F84012AA7AC31CA1439A4041EA0241D3
:100BD000C9F84012D9F840126A7AB9439A401143D1
:100BE000C9F8401236E700BFD9F83C02297B20F44F
:100BF000F81040EA0140C9F83C02D9F83C02E97A11
:100C000020F01F000843C9F83C02D9F83802297ABD
:100C100020F0020040EA4100C9F83802D9F8380251
:100C2000E97920F001000843C9F83802D9F8180022
:100C300040F00100C9F8180001B0BDE8F08F00BF16
:100C400049F27C00AF21C0F6000007F051FAB5F878
:100C50000500B0F5807F7FF6E3AE49F27C00B0215D
:100C6000C0F6000007F044FA287B1128FFF4DCAE40
:100C700049F27C00B121C0F6000007F039FAE87AA9
:100C80001128BFF4D4AED9E60021C0F807104160A6
:100C9000016041F21001A0F80B1070470000000045
:100CA00070B54CF20003C4F2100398421AD04DF212
:100CB0000003C4F21003984214D04EF20003C4F2B1
:100CC000100398420ED049F27C030C46C0F6000394
:100CD0004FF4C67105461846164607F009FA214634
:100CE00028463246FF2900F383804B1E3F2B00F23B
:100CF000CF80DFE813F041004100D0004100D00078
:100D0000D000D0004100D000D000D000D000D000F2
:100D1000D000D0004100D000D000D000D000D000E2
:100D2000D000D000D000D000D000D000D000D00043
:100D3000D000D0004100D000D000D000D000D000C2
:100D4000D000D000D000D000D000D000D000D00023
:100D5000D000D000D000D000D000D000D000D00013
:100D6000D000D000D000D000D000D000D000D00003
:100D7000D000D000410000BFFF2A00F34980531E7D
:100D80003F2B00F29980DFE803F021219A219A9A03
:100D90009A219A9A9A9A9A9A9A219A9A9A9A9A9AA5
:100DA0009A9A9A9A9A9A9A9A9A219A9A9A9A9A9A1C
:100DB0009A9A9A9A9A9A9A9A9A9A9A9A9A9A9A9A93
:100DC0009A9A9A9A9A9A9A9A9A2100BF91FAA1F1BC
:100DD000B1FA81F192FAA2F2B2FA82F200EB81004A
:100DE000416B21F4F03141EA4231416370BD00BFF3
:100DF000B1F5805F1ADAB1F5806F2DDAB1F5807F39
:100E00003FF4BAAFB1F5007F3FF4B6AF43E000BFA7
:100E1000B2F5805F16DAB2F5806F25DAB2F5807F21
:100E2000D4D0B2F5007FD1D049E000BFB1F5804FFA
:100E300020DAB1F5805F3FF49FAFB1F5005F3FF47A
:100E40009BAF28E0B2F5804F1CDAB2F5805FBDD0D1
:100E5000B2F5005FBAD032E03FF48EAFB1F5006F6B
:100E60003FF48AAF17E000BFB0D0B2F5006FADD04D
:100E700025E000BF3FF480AFB1F5004F3FF47CAFF9
:100E800009E000BFA2D0B2F5004F9FD017E000BF2D
:100E900080293FF471AF49F27C030C46C0F6000391
:100EA00040F28D1105461846164607F021F92146F5
:100EB0002846324660E700BF802A3FF487AF49F2F8
:100EC0007C030C46C0F600034FF4C7710546184674
:100ED000164607F00DF921462846324676E700000F
:100EE0004CF20002C4F2100290421BD04DF20002FC
:100EF000C4F21002904215D04EF20002C4F2100269
:100F000090420FD0B0B549F27C020C46C0F6000208
:100F10004FF4AD710546104607F0EAF82146284621
:100F2000BDE8B040826922F0080242EAC101816155
:100F3000704700000000000010B54CF20001C4F240
:100F40001001884216D04DF20001C4F2100188420F
:100F500010D04EF20001C4F2100188420AD049F2CA
:100F60007C0240F2DA21C0F600020446104607F087
:100F7000BFF820468169082221F002018161816960
:100F800041F004018161416862F3030141604168FD
:100F900041F000614160816841F001018160C168F8
:100FA000C90309D4C168C9035CBFC1685FEAC13124
:100FB00002D4C168C903F2D5C1684FF400630A04C2
:100FC00001F0030100EE101AB5EE002A03EBA24275
:100FD000B8EE401A00EE102AB8EEC00A01EE020A7E
:100FE000B5EE400AF1EE10FA02DA9FED620A08E06F
:100FF0009FED611AB4EE410AF1EE10FA01DDB0EE98
:10100000410A4168042221F008014160416862F30D
:1010100003014160816841F001018160C168C90339
:1010200009D4C168C9035CBFC1685FEAC13102D499
:10103000C168C903F2D5C1680A0401F0030101EED9
:10104000101A4FF4006101EBA241B8EE413A01EEF3
:10105000101AB8EEC11A03EE021AB5EE401AF1EEFC
:1010600010FA03DA9FED431A09E000BF9FED422A10
:10107000B4EE421AF1EE10FA01DDB0EE421A30EE93
:10108000412A9FED3E3AB1EE004A22EE032AB7EE26
:10109000003A83EE023AB5EE402AF1EE10FA18BF9C
:1010A000B0EE432A4168B4EE442A21F00401F1EE87
:1010B00010FA41601ADAB5EE402AF1EE10FA19DDA5
:1010C000B6EEC23A9FED2E4A32EE433ABDEEC22A48
:1010D00023EE043A12EE101ABDEEC33A01F00301FA
:1010E00013EE102A42EA013105E000BF43F6FF711A
:1010F00001E000BF002130EE010AB6EE001A20EE3A
:10110000010ABDEEC00A10EE102AC2F5006212B24A
:1011100012F1100F02DA4FF4805209E00F2A03DDBA
:101120004FF4706204E000BF4FF4F85303EA022268
:101130006FF39F31036943F000430361436943F058
:101140000043436143696FF31D4343EA0141416139
:10115000016921F4F85111430161416821F00061F6
:101160004160816921F002018161816921F00401FE
:10117000816110BD0000000000F07F450000803953
:10118000000080450000000070B54CF200030446EA
:10119000C4F21003164698420D4613D04DF20000DB
:1011A000C4F2100084420DD04EF20000C4F21000D0
:1011B000844207D049F27C0040F29141C0F6000021
:1011C00006F096FF3DB949F27C0040F29241C0F62C
:1011D000000006F08DFF042E10D84FF43A70DFE8BF
:1011E00006F00A04030807002D044FF43B7002E0E8
:1011F0002D044FF43C702158A943215070BD0000CC
:1012000040F62010C2F20000D0F8C40100470000F0
:1012100040F62010C2F20000806C00470000000081
:1012200040F62010C2F20000806D00470000000070
:1012300040F62010C2F20000006D004700000000E0
:1012400040F62010C2F20000406D00470000000090
:1012500040F62010C2F20000C06C00470000000001
:1012600040F62010C2F20000406C00470000000071
:1012700040F62010C2F20000006E0047000000009F
:1012800040F62010C2F20000006F0047000000008E
:1012900040F62010C2F20000806E004700000000FF
:1012A00040F62010C2F20000C06E004700000000AF
:1012B00040F62010C2F20000406E0047000000001F
:1012C00040F62010C2F20000C06D00470000000090
:1012D00040F62010C2F20000D0F8A4000047000041
:1012E00040F62010C2F20000D0F89C000047000039
:1012F00040F62010C2F20000D0F8A0000047000025
:1013000040F62010C2F20000D0F8B0000047000004
:1013100040F62010C2F20000D0F8A80000470000FC
:1013200040F62010C2F20000D0F8AC0000470000E8
:1013300040F62010C2F20000D0F85C010047000027
:1013400040F62010C2F20000D0F860010047000013
:1013500040F62010C2F20000D0F8640100470000FF
:1013600040F62010C2F20000D0F8680100470000EB
:1013700040F62010C2F20000D0F8B401004700008F
:1013800040F62010C2F20000D0F8440100470000EF
:1013900040F62010C2F20000D0F8B0010047000073
:1013A00010B54CF20804C4F240042068C00705D10F
:1013B00047F64000C0F27D1002E000BF00F008F8E0
:1013C0002168C1F305410131B0FBF1F010BD00000F
:1013D00080B54CF24400C4F2400050F83C1C50F878
:1013E000402CC90747F64001C0F27D1116D0920784
:1013F00050F8402C12D4D20706D1FC22C4F240028D
:101400001368002B18BF116850F83C2CD20731D15B
:1014100042F61501C0F27F014EE000BFD2070A4636
:1014200007D1FC23C4F240031A68002A0A4618BFF9
:101430001A6850F83C3CDB073ED00168D0F800E069
:10144000D0F800C00368C1F30B4103F03F03B2FBC7
:10145000F3F2CEF3C2235143CCF3022250F840CC36
:10146000B1FBF3F1B1FBF2F1012222EA5C02D140BF
:1014700022E000BF0268D0F800E0D0F800C00368A6
:10148000C2F30B4203F03F03B1FBF3F1CEF3C223EF
:101490005143CCF3022250F840CCB1FBF3F1B1FB45
:1014A000F2F1012222EA5C02D1404AF6AB22CAF6EE
:1014B000AA22A1FB0212510850F8380C00F03F009C
:1014C0000130B1FBF0F080BD80B54CF24400C4F2B5
:1014D000400050F83C1CC90747F64001C0F27D119E
:1014E00008D150F8340C00F03F000130B1FBF0F0AF
:1014F00080BD00BF50F8402C920750F8402C11D40A
:10150000D20706D1FC22C4F240021368002B18BF98
:10151000116850F83C2CD20730D14BF62041C0F274
:10152000BE01DEE7D2070A4607D1FC23C4F240031E
:101530001A68002A0A4618BF1A6850F83C3CDB07B4
:10154000CFD00168D0F800E0D0F800C00368C1F344
:101550000B4103F03F03B2FBF3F2CEF3C22351433E
:10156000CCF3022250F840CCB1FBF3F1B1FBF2F125
:10157000012222EA5C02D140B3E700BF0268D0F842
:1015800000E0D0F800C00368C2F30B4203F03F0351
:10159000B1FBF3F1CEF3C2235143CCF3022250F856
:1015A00040CCB1FBF3F1B1FBF2F1012222EA5C0283
:1015B000D140490895E700004CF2B00045F278614F
:1015C000C4F24000C1F23421016070470000000005
:1015D00000287DD070B54CF20806C4F24006316890
:1015E000C27A21F4800141EA825131603168037A84
:1015F00021F07C444279817990F807C044EA836302
:101600003360336823F47C1343EA0141316071682D
:1016100021F07C5141EA0C617160716821F47C1108
:1016200041EA024171607168437A21F47C5141EAD8
:10163000032171607168047921F03F010133DBB24D
:1016400021437160B168046821F03F012143B1601A
:10165000B168847A21F47C5E511CCAB218469A4261
:101660000CF1010188BF1046C9B24EEA0424884239
:10167000B46098BF084600E00130C4B2B4FBF2F594
:1016800005FB1245002DF7D1B4FBF3F505FB13451F
:10169000002DF1D1B4FBF1F505FB1145002DEBD187
:1016A00030686FF0FF0120F47F4001EB0421084314
:1016B0003060306840F0100030604FF47A7006F00F
:1016C0000BFD306820F010003060002070BD00BFBE
:1016D000012070470000000010B50446022806D320
:1016E00049F20D10FE21C0F6000006F001FD4CF29B
:1016F0000801C4F24001086820F0010200202243E2
:101700000A6010BD0000000040B1F0B581B0144681
:101710000268012A04D9012001B0F0BD0120704700
:1017200040F22825C4F2400522B94FF6D463CFF623
:10173000FF73E9504CF24401C369C4F24001012B2C
:1017400051F8407C27F0020708BF023741F8407C7F
:1017500051F8403C23F001031A4341F8402C0A6839
:10176000D0E902376FF31B42D0E9046C42EA03422E
:101770000A604A6802F07F423A434A600A6822F4EB
:10178000605242EAC6220A600A6822F4E06242EA33
:101790000C220A600A68836922F03F021A430A6039
:1017A00042680868022A07D0A2B940F48040086065
:1017B000002001B0F0BD00BF40F0400008600868A4
:1017C00020F48040086051F8400C40F0020041F8DD
:1017D000400C02E020F48040086000271F2602E051
:1017E0000027013C0ED064202E6006F075FC68686E
:1017F000C006F5D42868C006F2D4032FD8D8013724
:10180000013CF0D1042001B0F0BD00000000000058
:101810004CF2B0004AF6A901C4F24000C7F67901C3
:101820000160704700000000038811FB01F211FB0A
:1018300031225B439A4217D990F8B230C3EB12625F
:10184000D2B200EB42000AB20914808842434843F6
:10185000D117C31702EB514100EB5340C913C0F33A
:10186000CF30C1EA00407047080CC1EA0040704721
:1018700040F62010C2F20000D0F86C0100470000D2
:1018800040F62010C2F20000D0F8700100470000BE
:10189000B0B590F830100022044605F0F5FC00B217
:1018A000002500F50040C4F21005C0F30F112846D2
:1018B00000F0F2F894F831100022204605F0E4FC24
:1018C00000B200F5004105F58050C1F30F11BDE8ED
:1018D000B04000F0E1B80000084490F830007047D4
:1018E00000EB4100B0F9320070470000000000003A
:1018F000B0B582B000240DF10305C4F210044FF01E
:101900008070CDF8030000208DF80700204629469E
:1019100000F026F80121204600F06EF80021204654
:1019200000F092F8204600F047F804F5805429466C
:10193000204600F015F80121204600F05DF8002156
:10194000204600F081F8204600F036F802B0B0BD25
:10195000084480F83020704700EB41004286704711
:10196000B0B541F2000340F48052C4F210039A4231
:101970000BD049F254120C46C0F60002382105463D
:10198000104606F0B5FB21462846C26891F800C013
:101990004D7822F01E028C78CB7842EACC0242EAE3
:1019A000850242EA440242EA0312C26009790161F7
:1019B000B0BD00000000000080B50021C4F210019D
:1019C00088420FD041F20001C4F21001884206D0D3
:1019D00049F25410A521C0F6000006F089FB402012
:1019E00001E000BF042040F23421C4F240010A6843
:1019F0001043086080BD000010B50022C4F2100240
:101A0000904213D041F20002C4F21002904208D07A
:101A100049F254100C46C0F60000602106F068FB45
:101A2000214607206FF0800203E000BF03206FF023
:101A3000080240F2342301FA00F0C4F240031C68AB
:101A400022401043186010BD41F2000340F4805260
:101A5000C4F210039A420ED0B0B549F254120C46AB
:101A6000C0F6000278210546104606F041FB2146EB
:101A70002846BDE8B040C268C368D20623F0100310
:101A8000C360816058BF7047C16841F01001C160F8
:101A9000704700000000000041F2000340F4805253
:101AA000C4F210039A4201D141607047B0B549F2C7
:101AB00054120C46C0F600028C210546104606F072
:101AC00017FB21462846BDE8B04041607047000042
:101AD00070B540F2345144F24025C2F20001C0F228
:101AE0000F0500232A460968A1FB00042146FEF7E2
:101AF000C9FBAC4204460D4606D349F2C300EE21B1
:101B0000C0F6000006F0F4FA4EF6FC5041F2000672
:101B1000CEF20000CEF20006016841F08071016053
:101B20003068800106D549F2C300F621C0F60000F6
:101B300006F0DEFA00207060316841F0010131608A
:101B40007168091B70EB05010ED27168091B70EBFF
:101B5000050109D27168091B70EB050104D2716897
:101B6000091B70EB0501EBD3306820F001003060F9
:101B700070BD00000000000040F62010C2F200001E
:101B8000D0F824010047000040F62010C2F2000007
:101B9000D0F828010047000040F62010C2F20000F3
:101BA000D0F82C010047000040F62010C2F20000DF
:101BB000D0F800020047000040F62010C2F20000FA
:101BC000D0F828020047000040F62010C2F20000C2
:101BD000D0F82C020047000040F62010C2F20000AE
:101BE000D0F804020047000040F62010C2F20000C6
:101BF000D0F808020047000040F62010C2F20000B2
:101C0000D0F80C020047000040F62010C2F200009D
:101C1000D0F810020047000040F62010C2F2000089
:101C2000D0F814020047000040F62010C2F2000075
:101C3000D0F818020047000040F62010C2F2000061
:101C4000D0F81C020047000040F62010C2F200004D
:101C5000D0F820020047000040F62010C2F2000039
:101C6000D0F824020047000040F62010C2F2000025
:101C7000D0F880010047000040F62010C2F20000BA
:101C8000D0F884010047000040F62010C2F20000A6
:101C9000D0F8C8010047000040F62010C2F2000052
:101CA000D0F8F0010047000040F62010C2F200001A
:101CB000D0F8F4010047000040F62010C2F2000006
:101CC000D0F8F8010047000040F62010C2F20000F2
:101CD000D0F8FC010047000040F62010C2F20000DE
:101CE000D0F8CC010047000040F62010C2F20000FE
:101CF000D0F8D0010047000040F62010C2F20000EA
:101D0000D0F8D4010047000040F62010C2F20000D5
:101D1000D0F8D8010047000040F62010C2F20000C1
:101D2000D0F8DC010047000040F62010C2F20000AD
:101D3000D0F8E0010047000040F62010C2F2000099
:101D4000D0F8E4010047000040F62010C2F2000085
:101D5000D0F8E8010047000040F62010C2F2000071
:101D6000D0F8EC010047000080B1417802780A44C5
:101D700039B1042901F0030C0CD20021BCF1000F91
:101D800035D190B202EB1020C0B270470020C0B233
:101D9000704700BFF0B5031F01F0FC01C1F1000E58
:101DA0006FF003019C791E7ADD795F7A2244043159
:101DB0002A440EEB0104324404343A4403F1040390
:101DC0000FD000BF9C79DD79043122441C7A2A446B
:101DD0005D7A0EEB01062244341D03F104032A440C
:101DE000F0D1BDE8F0400431BCF1000FC9D00230A1
:101DF000BCF1010F435C1A44C3D00844BCF1020F8C
:101E000041780A44BDD08078024490B202EB1020A1
:101E1000C0B27047000000000021A0F81B1180F83C
:101E20001D11C0F81210C0F8961080F89A10704773
:101E3000002808BF704780E80E000099C160704715
:101E400040F62010C2F20000D0F8B80100470000B0
:101E500040F210712622C2F2000110FB021292F829
:101E60007C30002B18BF704710B501EB800002F1E9
:101E70005804406903F06CFCE0832082BDE8104008
:101E8000704700000000000010B540F210712622DB
:101E9000C2F2000110FB021201EB800400210023BA
:101EA000A0699365D36553669366C2F86E30C2F835
:101EB0007230C2F8763001F0FFFBE069002101F0DA
:101EC000FBFB606903F070FCE068BDE8104001F0C6
:101ED00067BD000000000000704700000000000027
:101EE00010B582B001AC204600F0DAF800208DF881
:101EF000070040F20310ADF804001920214600F05D
:101F0000FFF81820214600F0FBF81920002100F00E
:101F10009BF91820002100F097F91920002100F00A
:101F2000E3F91820002100F0DFF91920002100F06A
:101F300023FA1820002100F01FFA02B010BD0000A3
:101F400040F62010C2F20000D0F8B80000470000B0
:101F500040F62010C2F20000D0F8BC00004700009C
:101F600040F62010C2F20000D0F8C0000047000088
:101F700040F62010C2F20000D0F8C4000047000074
:101F800040F62010C2F20000D0F8C8000047000060
:101F900040F62010C2F20000D0F8E4000047000034
:101FA00040F62010C2F20000D0F80C0100470000FB
:101FB00040F62010C2F20000D0F8100100470000E7
:101FC00040F62010C2F20000D0F8140100470000D3
:101FD00040F62010C2F20000D0F8180100470000BF
:101FE00040F62010C2F20000D0F81C0100470000AB
:101FF00040F62010C2F20000D0F820010047000097
:1020000040F62010C2F20000D0F8E80000470000BF
:1020100040F62010C2F20000D0F8EC0000470000AB
:1020200040F62010C2F20000D0F8F0000047000097
:1020300040F62010C2F20000D0F8F4000047000083
:1020400040F62010C2F20000D0F8F800004700006F
:1020500040F62010C2F20000D0F8FC00004700005B
:1020600040F62010C2F20000D0F800010047000046
:1020700040F62010C2F20000D0F804010047000032
:1020800040F62010C2F20000D0F80801004700001E
:1020900040F62010C2F20000D0F8CC00004700004B
:1020A00010B5044620B14FF00120206010BD00BFE4
:1020B00049F29B103621C0F6000006F019F84FF0E7
:1020C0000120206010BD000010B50446602806D332
:1020D00049F29B10E221C0F6000006F009F84FF427
:1020E000704046F2000100EA0420C4F2200104F02E
:1020F0000F024058D04000F0010010BD0000000069
:10210000B0B584B005460C46602D4FF0000003903A
:10211000029001901CD22078042823D2E078022873
:102120002AD26078032831D2A078022806D349F257
:102130009B105621C0F6000005F0DAFF2809029036
:10214000029878B30298C0EBC00080002BE000BF7B
:1021500049F29B105221C0F6000005F0C9FF20781B
:102160000428DBD349F29B105321C0F6000005F090
:10217000BFFFE0780228D4D349F29B105421C0F667
:10218000000005F0B5FF60780328CDD349F29B101D
:102190005521C0F6000005F0ABFFA0780228C6D29A
:1021A000CCE700BF002001904FF21402029905F025
:1021B0000F0005294FF00101C4F2400202D0019B3B
:1021C0001A44183203928140E278012A04D1039A1A
:1021D00013680B4303E000BF039A13688B4313603B
:1021E000039A04320392A278012A03D1039A136856
:1021F0000B4302E0039A13688B431360039A043283
:1022000003926278012A07D0022A09D1039A13683F
:10221000194311600DE000BF039A5368194307E0AA
:10222000039A13688B431360039A536823EA0101EE
:10223000516003994300083103912178039A0020EB
:102240009940116004B0B0BDB0B584B005460C46ED
:10225000602D4FF0000003900290019006D349F2E8
:102260009B109D21C0F6000005F042FF0F2C06D305
:1022700049F29B109E21C0F6000005F039FF2809A5
:1022800002900298C0EBC0008000019002980528DF
:102290004FF22800C4F2400002D0019908441830DF
:1022A000039005F00F0002906FF0030102980F22D7
:1022B00001EA500003990844039002981C2101EAA6
:1022C0008000029003980068029902FA01F120EA66
:1022D00001010298039A04FA00F3002019431160E7
:1022E00004B0B0BD00000000B0B5044660280D4643
:1022F00006D349F29B10C321C0F6000005F0F8FE9A
:102300001420002D04F0F00146F2000508BF102053
:10231000C4F2200504F00F0240EA0121012300204D
:1023200003FA02F24A51B0BDB0B54FF4704146F223
:10233000000201EA0021C4F2200200F00F0360282D
:102340004FF0010001EB020400FA03F507D349F254
:102350009B1040F27A21C0F6000005F0C9FE6068CB
:10236000284260680CBF40EA050120EA0501002010
:102370006160B0BD00000000F0B581B00C464FF4C4
:10238000704146F2000201EA0021C4F220026028F6
:1023900001EB020500F00F064FF0010706D349F2EA
:1023A0009B10F821C0F6000005F0A2FE012C07FAF0
:1023B00006F005D1696808436860002001B0F0BDEF
:1023C000696821EA00006860002001B0F0BD0000EB
:1023D00004F08AF940F2CC540025C2F20004C4F2A1
:1023E000500501E005F0C0FAD4F8200104F068FCC3
:1023F00006460E21284604F0F7FB16F00C0F04D019
:10240000204604F075FD05F0AFFAB00702D520466E
:1024100004F05EFE7007E7D5D4F8200104F094FCC8
:102420000146204604F074FD00880228DAD0012815
:10243000DAD105F091FAD7E740F62010C2F2000099
:10244000D0F884000047000040F62010C2F20000DF
:10245000D0F8880000470000FEE700000000000000
:1024600010B5D0E9010403F003FA206110BD0000AB
:102470000068012103F09CBAD0B3017E012918BF86
:10248000704710B5017B012918D003290ED002290D
:102490002AD1D0E901210023044681F8243000210B
:1024A000104603F021FAB4F9101013E081680122FC
:1024B00081F82420D0F812200A6112E0D0E901212D
:1024C0000023044681F824300121104603F00CFA61
:1024D000B4F90E10E28A606803F06EF901462046F6
:1024E00011B1022101E000BF03210176BDE81040D7
:1024F000704700000000000001230373C18140F217
:102500000111C282018370470223037301820121FA
:10251000C282018370470000006803F0F1B9000037
:1025200080B5406803F0BCF9BDE8804002F018BAFD
:10253000407E70470000000080680068704700001F
:102540008068406870470000017B03290AD0022997
:1025500004D0012910D1B0F90E1005E0B0F9101027
:1025600002E000BFB0F912104FF0FF30B1F1FF3FB1
:10257000C8BF012000B27047012000B270470000C0
:102580008068C0687047000080680069704700007C
:10259000017B012902D1C08900B27047002000B23E
:1025A0007047000000000000406803F069B90000B7
:1025B000006803F0E1B900008068B0F91E007047C0
:1025C0008068D0F81A0070478068D0F8160070470D
:1025D00080E80E0000210173C0F80E10C182017660
:1025E0007047000000000000032202734182090CC2
:1025F0008182012101837047806841828182704716
:1026000010B504460068032103F0D2F9002808BF82
:1026100010BD0121217610BD0068072103F0C8B963
:10262000406803F069B9000046F634420114CFF661
:10263000FF7251434BF21A62CFF6FF7212FB001188
:1026400080B221F3CF32C913120411F5004FDCBF61
:102650000022C8F201021044704700000000000090
:1026600010B50446084600F033F8211410FB04F2BC
:10267000031403FB112110FB14F210FB2420CA13D6
:1026800021F3CF3120F3CF3389B2C0131B0410F5EF
:10269000004FDCBF0023C8F2010312F5004FD8BF82
:1026A00048F20101581810BD10B50446084600F064
:1026B0000FF822B210FB04F110FB3411031410FBCD
:1026C00014F003FB12004000C0EAE13010BD00002E
:1026D00081B20222C0F3871082EA9131DFE801F073
:1026E000022E122048F63C6280F0FF01C0F6000284
:1026F00032F8100032F8111040424942C1EA00405D
:10270000704700BF48F63C6280F0FF01C0F600024F
:1027100032F8100032F81110C1EA0040704700BFD3
:1027200048F63C6280F0FF01C0F6000232F810303B
:1027300032F811005942C1EA0040704748F63C6245
:1027400080F0FF01C0F6000232F8113032F81010AC
:102750005842C1EA00407047F0B581B006461C46B9
:1027600015460898DDE90672C6E9300242F2A97002
:1027700043F2091242F2B1733163C0F60000C0F6B1
:102780000002C0F60003009008463146FFF750FBF8
:10279000C6E90D54F763304601B0BDE8F04000F0E3
:1027A000B7BC00000000000000F0B2BC0000000058
:1027B0002DE9F0418CB01E4615460F46804648096B
:1027C0004FF000018DF82F1010D0441E40462246D5
:1027D00005F0E6F8002800F0B780D8F8C40007F04C
:1027E0001F0718B10021224605F0DAF8122F00F277
:1027F000A782DFE817F0AC001300D101D300A502D7
:10280000A502ED0079028502AF02A702B7000D0113
:10281000E100A502A502A502A502AC0029780520C9
:102820008DF80A00882900F23B83DFE811F01503D8
:1028300039033903070339038900890089008900B6
:102840008900890089008900890089008900C30204
:10285000C30239033903890089008900890089008E
:1028600039033903390331032703390339033903A2
:102870003903390339033903390339033903390378
:102880003903390339033903390339033903390368
:102890003903390339033903390339033903390358
:1028A0003903390339033903390339033903390348
:1028B00089003903390339033903C302C302C30250
:1028C00039033903390339033903390389003903DB
:1028D000390339038900890089008900890089004A
:1028E00089003903C3023903390339033903390332
:1028F0008900390339038900890039033903390311
:1029000039033903390339033903390339033903E7
:102910003903390339030703C302C302C302C302E5
:10292000C302390339033903C302C302390339032C
:1029300039033903390339033903890089008900D0
:10294000B5F8012038E200BF0B208DF80A00D8E965
:102950000C070DF10A02FF210123B8470CB0BDE8B6
:10296000F08100BF40F6FC040C20C2F200048DF898
:102970000A0003A8214603958DF8106004F080FC3E
:1029800000288DF82F00E2D023792268D8E90C07BF
:10299000F021B8470CB0BDE8F08100BF29780720CE
:1029A0008DF80A00404604F0F3FB00288DF82F0054
:1029B000CDD000F09DBB00BFAA88B5F900104046FD
:1029C00004F04AFC00288DF82F00C0D000F090BB26
:1029D000D8F8C00000218DF82B10CDF82710CDF8C5
:1029E0002310CDF81F10CDF81B10CDF81710CDF81F
:1029F0001310CDF80F100278092A00F066838DF8C5
:102A00000F204178092940F0E181012100F05DBBF0
:102A1000D8F8C0000278002A00F0B68141788DF81D
:102A20000C20002900F0DA8182788DF80D10002A40
:102A300000F0D681C1788DF80E20002900F0F281D7
:102A400002798DF80F10002A00F0F68141798DF897
:102A50001020002900F0F48182798DF81110002AED
:102A600000F0F881C1798DF81220002900F022824F
:102A7000027A8DF81310002A00F03E82417A8DF818
:102A80001420002900F04282827A8DF81510002A65
:102A900000F04682C17A8DF81620002900F04282AB
:102AA000027B8DF81710002A00F04682417B8DF8DA
:102AB0001820002900F04A82827B8DF81910002A24
:102AC00000F04682C17B8DF81A20002900F04A826E
:102AD000027C8DF81B10002A00F04E82417C8DF89C
:102AE0001C20002900F04A82827C8DF81D10002AEB
:102AF00000F04E82C17C8DF81E20002900F0528229
:102B0000027D8DF81F10002A00F04E82417D8DF865
:102B10002020002900F05282827D8DF82110002AA9
:102B200000F05682C17D8DF82220002900F05A82E3
:102B3000027E8DF82310002A00F05682417E8DF827
:102B40002420002900F05A82827E8DF82510002A68
:102B500000F05E82C17E8DF82620002900F05A82A6
:102B6000027F8DF82710002A00F05E82417F8DF8E9
:102B70002820002900F06282827F8DF82910002A27
:102B800000F05E82C07F8DF82A20002800F062826B
:102B90008DF82B00A3E200BF297803208DF80A00EE
:102BA00088293FF6D4AEDFE811F02501F1002501B8
:102BB0002501F1008B008B008B008B008B008B00BC
:102BC0008B008B008B008B008B008B008B008B00AD
:102BD0008B008B008B008B008B008B008B008B009D
:102BE0008B0087019301F1008B008B008B00250186
:102BF000890089008900890089008900890089008D
:102C0000890089008900890089008900890089007C
:102C1000890089008900890089008900890089006C
:102C20008900890089008900890089008B0089005A
:102C3000890089008900F100F100F1008B008B0010
:102C40008B008B002501F1008B008B008B008B002B
:102C50008B008B008B008B008B008B008B00250181
:102C6000F10089008B008B008B008B008B008900AA
:102C700089008B008B0025012501F100F100F10096
:102C8000F100F10025018B008B00F10089008B0021
:102C90008B002501F100F100F100F100F100F100DD
:102CA000F100F100F100F100F1002501890025019A
:102CB000F100F100F1008B008B008B0047E600BFB4
:102CC0000DF12F02404604F0DFFA9DF82F1003901B
:102CD000002900F0A380D8E90C0703AAF021022301
:102CE000B8470CB0BDE8F081AA882968404604F0D6
:102CF0009FFA00288DF82F003FF429AEF8E100BFBD
:102D000029780DF10A0202AB0DF106000090404651
:102D100004F0C6FDBDF9080003AAF021082300EB6A
:102D2000400040000390BDF80600ADF81000BDF86B
:102D30000A00ADF81200D8E90C07B84707E600BF53
:102D4000012002E6B5F900104046B5F9022004F072
:102D500013FECAE1D5F801004AF6AB21C2F6AA215A
:102D6000B5F8072050FB01F02978B5F905700097F8
:102D700000EBD07003B2404604F082FF00288DF8CB
:102D80002F003FF4E4ADB3E1002164E10DF12F0227
:102D9000404604F079FA9DF82F10039000293DD0A9
:102DA000D8E90C0703AAF0210423B8470CB0BDE80A
:102DB000F08100BFD5F80120404604F0F1FD002865
:102DC0008DF82F0040F09481C1E500BF8DF8101000
:102DD0008178092906D1022177E100BF01213AE17A
:102DE000022138E18DF81110C17809291CD1032185
:102DF0006BE100BF0DF12F02404604F045FA9DF84B
:102E00002F100390002909D0D8E90C0703AAF0215C
:102E10000123B8470CB0BDE8F08100BF3FF497AD87
:102E200066E100BF032116E18DF81210017909292E
:102E300008D1042149E100BF04210CE16A78BBE715
:102E4000052108E18DF81310417909292AD10521BE
:102E50003BE100BF0621FEE06C78D8F8C4000021F9
:102E6000224604F09DFD00214046224604F098FDD4
:102E700000288DF82F0040F03B8168E56A78D8F88B
:102E8000C4000121012404F083FD8DF82F402FE1BF
:102E90006A78D8F8C400002104F07AFD25E100BF6B
:102EA000022052E58DF814108179092926D10621D6
:102EB0000BE100BF0721CEE0D8F8C40000283FF4A2
:102EC00046AD002104F0D4F98DF80C009CE700BF5A
:102ED000D8F8C40000283FF43AAD0121012404F0E1
:102EE000C7F98DF80C0003AAD8E90C07F0210123DB
:102EF000B8478DF82F40FBE00821ACE08DF81510A5
:102F0000C179092904D10721DFE000BF0921A2E02E
:102F10008DF81610017A092906D10821D5E000BFE5
:102F20000A2198E00B2196E08DF81710417A0929C3
:102F300004D10921C9E000BF0C218CE08DF81810E4
:102F4000817A092906D10A21BFE000BF0D2182E064
:102F50000E2180E08DF81910C17A092904D10B21C6
:102F6000B3E000BF0F2176E08DF81A10017B09292C
:102F700006D10C21A9E000BF10216CE011216AE00C
:102F80008DF81B10417B092904D10D219DE000BF64
:102F9000122160E08DF81C10817B092906D10E21D9
:102FA00093E000BF132156E0142154E08DF81D106A
:102FB000C17B092904D10F2187E000BF15214AE018
:102FC0008DF81E10017C092904D110217DE000BF7D
:102FD000162140E08DF81F10417C092906D11121EE
:102FE00073E000BF172136E0182134E08DF820107F
:102FF000817C092904D1122167E000BF19212AE050
:103000008DF82110C17C092906D113215DE000BF94
:103010001A2120E01B211EE08DF82210017D0929D4
:1030200004D1142151E000BF1C2114E08DF82310BD
:10303000417D092906D1152147E000BF1D210AE085
:103040001E2108E08DF82410817D09290AD116215E
:103050003BE000BF1F2103A80844C1F12001FDF798
:1030600049F93CE08DF82510C17D092902D11721CD
:103070002BE000BF8DF82610017E092902D118210E
:1030800023E000BF8DF82710417E092902D11921C4
:103090001BE000BF8DF82810817E092902D11A217A
:1030A00013E000BF8DF82910C17E092902D11B2130
:1030B0000BE000BF8DF82A10017F092902D11C21E5
:1030C00003E000BF8DF82B101D21084441798DF8D5
:1030D0000C10C1798DF80D10407A8DF80E00D8E9EA
:1030E0000C0703AAF0212023B84701208DF82F00F8
:1030F000D8E90C07F02100220023B8470CB0BDE846
:10310000F08100000000000000F002B800000000A4
:1031100010B50446006BE16B8847206B8022A16BE1
:1031200084F8C820BDE810400847000000000000F7
:1031300040F29070C2F200000068FFF7F1B90000A1
:1031400040F290720B46C2F200020146126810462D
:103150001A46FFF7D1B9000040F21070C2F2000029
:103160000078002808BF704780B500F009F803F028
:10317000BFFCBDE8804004F0C7BB000000000000B9
:1031800010B540F21074C2F200042078012810D16A
:10319000608878B1608801386080A08810B1A0880C
:1031A0000138A080E088002808BF10BDE088013801
:1031B000E08010BD03F05CFB01206080A088002847
:1031C000EDD1EFE70000000040F29070C2F2000085
:1031D0000068FFF715BA000040F29070C2F20000DC
:1031E0000068FFF719BA00002DE9F04F83B040F2F4
:1031F00010788246C2F20008029108F13405284690
:1032000002F0CEFB40F2902040F20801C2F2000032
:103210004FF0000988F80090C2F20001C8E90210DE
:1032200000F06AFD40F25014C2F20004204600F0A3
:103230003BFA40F2D83B40F20050C2F2000BC2F21F
:103240000000C8E90440584602F0B2FFD8E9041073
:103250005A4602F031FB40F29054C2F2000420467C
:1032600004F09EFE40F24C3040F2C433D8F80C20FB
:10327000C2F20000D8F81410C2F2000300922246F5
:1032800001F01AFA40F22416C2F20006304600F0AD
:103290000BFA40F2F807C2F20007384600F004FAD1
:1032A00040F22430C8F81860C2F20000C8E9077084
:1032B00001F0E2FA40F27C1040F23857C2F200000E
:1032C000C2F20007C8F82400D8F8201008F1580608
:1032D000C0E94361384600F09BF940F20C30C2F27D
:1032E0000000C8E90A7001F033F90020FEF7CCFDB8
:1032F000D8F81400012788F87C7002F0B9FAC8F8F1
:103300006800D8F8140002F0B3FA000CA8F86C00BA
:1033100008F13C00D8F8142029463346C8F830009C
:10332000FFF756F9D8F81400D8F8306002F0B0FA78
:10333000014600223046FFF7DFF8D8F83000CAF81F
:10334000000040F6A800D8F81010C2F2000001609A
:10335000D8F818104160D8F81C108160D8F80C100B
:10336000016140F24C31C2F200010462C0E9051B68
:10337000D8F81410C0F80C90C0E90915D8F8281036
:10338000C162D8F820100163D8F82410C0F81C904E
:10339000C0E90F190299C0E90D99C0E91199C0E976
:1033A0001399086088F8007003B0BDE8F08F000042
:1033B00040F62010C2F20000D0F85801004700008B
:1033C00070B5B0F800218C4600F1200E20F81210E4
:1033D000B0F80011A0F802114A1C93B27F2B6FF0D5
:1033E000FF0388BF0022A0F8002100220EEB03019A
:1033F0004033B1F9E040B1F9E250B1F9E460224460
:10340000B1F9E6402A44B1F9E85032442244B1F916
:10341000EA402A44B1F9EC502244B1F9EE402A4482
:10342000B1F9F0502244B1F9F2402A44B1F9F45014
:103430002244B1F9F6402A44B1F9F8502244B1F9D6
:10344000FA402A44B1F9FC502244B1F9FE402A4422
:10345000B1F900512244B1F902412A44B1F90451B1
:103460002244B1F906412A44B1F908512244B1F984
:103470000A412A44B1F90C512244B1F90E412A44BF
:10348000B1F910512244B1F912412A44B1F9145151
:103490002244B1F916412A44B1F918512244B1F934
:1034A0001A412A44B1F91C512244B1F91E112A448F
:1034B0000A449BD1D11702EB5161C909A0F804114C
:1034C000604670BD0000000080B54FF48271FCF7CB
:1034D00011FF80BD00000000B0F90401704700003A
:1034E00040F62010C2F20000D0F8B40000470000FF
:1034F00040F2345044F6D351C2F20000C1F26201EE
:103500000068A0FB01014FF0FF3000EBD11100205B
:10351000B0EB116F0DD14EF21002F023CEF200028B
:1035200051604EF62351CEF200010B7090600720DF
:103530001060B0B582B040F29074C2F20004251D54
:1035400020462946FFF750FE49F25C0240F208701F
:10355000C0F60002C2F200000121009222462B4672
:1035600004F0AAFB02B0B0BD4EF60C504FF6FF02BD
:10357000CEF200000168114041F0806141F0FD7120
:1035800001604EF20F400021CEF2000080F867107B
:1035900080F83E10202101707047000000000000FC
:1035A00010B50446007818B10020E08210BD00BFBD
:1035B00094F8260000F0A0FE4FF6FF71884207D075
:1035C000218B228A4B1E03FB0200B0FBF1F020820C
:1035D000204600F035F8E08210BD00000000000039
:1035E0000021018270470000017819B1808A00B281
:1035F000704700BF018AB0F91E30026A808C891AB8
:103600005943CA1701EB124100EB114000B2704759
:10361000017829B10021C182418A0182704700BF2F
:1036200010B5011D0446084600F0B6FE84F82600D9
:103630002046BDE81040FFF7D3BF000000000000A7
:10364000018A428B914201D908207047828B9142B6
:1036500002D20020704700BFC08A704700000000FF
:1036600040F62010C2F20000D0F830010047000000
:1036700040F62010C2F20000D0F8480100470000D8
:10368000B0F9220070470000B0F906007047000052
:10369000408B704700000000B0F904007047000044
:1036A000008B704700000000028C016842840022F9
:1036B0008262C0E90112704781607047000000001B
:1036C0004184704700000000C18070470000000086
:1036D000818070470000000070B5B0F90430B0F987
:1036E0000620B0F914C001FB03FEB0F91640BAB1D0
:1036F00001FB02F5D0E9026301FB026201213540C2
:10370000C8F20001B5F1FF3FC8BF1146002A48BF0B
:103710001146994205DC03699942C8BF0B4600E097
:103720000023818BC28B4EFA01F143FA02F211445D
:103730008C4505DA1FFA8CF4ACEB010206E000BF01
:10374000621AD8BF0022A142C8BF0C4621B21A4457
:103750008260084670BD000070B50446D0F80C01C8
:103760000022C168D4F80851D0F8160020FB0120CF
:10377000C11700EB1141D4F810010E1404F050FBF6
:10378000684348F2B511C1F64E3150FB01F081118A
:1037900001EBD07046F267617043C6F2666100EBE0
:1037A0004000400050FB01F0811401EBD071204635
:1037B000BDE87040FFF704BEC16908470000000083
:1037C00010B501290ED0A9B9044600F0E9F8B4F803
:1037D00054102046A4F8461000291CBF002010BD3C
:1037E0000AE000BFB0F8461041B10139A0F8461018
:1037F0000A0401D0002010BD01698847012010BDD6
:10380000426810470000000070B5B0F852500A142A
:1038100009B2036B6A434FF0000C03FB01F4A4EB05
:103820004204ACEB420203FB112304EBD47114F10C
:10383000020F4FEA610C03EBD3714FEA610E4FEABE
:1038400095011BDC13F1020F2EDCACEB0E024FF0E6
:10385000040CD51780F83CC002EB9532654201EBB1
:10386000A2415A4201EB954CA0F83EC0A0F840108E
:10387000A1EB924EA0F842E041E000BFB3F1FF3F60
:103880002ADBACEB0E02D31702EB9332012380F854
:103890003C3001EBA241A0F8401001EB5E4EA0F8D5
:1038A0003EE0A1EB5C4C28E0002A51DDACEB0203CA
:1038B000DD1703EB95336542022480F83C4001EBB1
:1038C000A341A0F8421001EB954CA0F840C00CEBCE
:1038D000524EA0F83EE012E0002A4FDDA2EB0E04AB
:1038E0005B42002580F83C5001EB9441C187A1EB7D
:1038F000934EA0F840E0AEEB524CA0F842C0B0F8B6
:1039000050208186A0F836E0012AA0F838C01BD1EB
:10391000B0F85620B0F94A505342002D1C46B0F979
:103920004C50C8BF1446B0F94E60002D21441C46CF
:10393000C8BF1446002E8186C8BF13460EEB040193
:10394000C1860CEB030101878169BDE8704008471F
:10395000A2EB0E035242DD1703EB9533032580F8EB
:103960003C5001EBA341A0F8421001EB5E4EA0F8E1
:1039700040E00EEB524CA0F83EC0C0E7ACEB0203B7
:103980005242052580F83C5001EB9341C187A1EBE1
:103990005C4CA0F840C0ACEB524EA0F842E0AEE761
:1039A000816808470000000010B546F200040121BC
:1039B000C4F20004204601F03BFA012818BF10BDF4
:1039C0000121204601F09CF940F29020C2F2000053
:1039D000BDE8104000F010BC2DE9F04381B0044672
:1039E000806F0025D0F808802046C4E91755656629
:1039F00000F08EFB40200021022201F081F880209F
:103A00000021022201F07CF810200021022201F0A6
:103A100077F840200121022201F072F88020012174
:103A2000022201F06DF810200121022201F068F855
:103A300043F669404FF00309C0F60000606043F6AA
:103A4000E970A4F87290C0F60000A061204604F16D
:103A5000730684F83C9000F093FBA06F04F13A07E2
:103A60003946334690F8B620404605F001F8204626
:103A700000F04EFB43F6B940A4F87250C0F60000C7
:103A80006060204684F83C5000F07AFBA06F394615
:103A9000334690F8B620404604F0EAFF204600F096
:103AA00037FB43F63930B4F8701046F20005C0F623
:103AB0000000606044F26100C4F20005C0F600003E
:103AC000A0614A080021284601F0AAFDB4F8700060
:103AD0000021420805F5805001F0A2FDB4F8700005
:103AE000002142084FF0402001F09AFD40200021C3
:103AF000002284F83C9001F003F88020002100228D
:103B000000F0FEFF10200021002200F0F9FF40200D
:103B10000121002200F0F4FF80200121002200F0AA
:103B2000EFFF10200121002201B0BDE8F04300F0BA
:103B3000E7BF000000000000B0B590F83C20836FA4
:103B4000052A03EB8203D3F81CC05B6BDCF800E0B2
:103B5000D3F800C074D801234FEA0C1C03FA02F218
:103B60004FEA0E1312F0060F22D112F0180F3BD0BD
:103B70009AB248F2010ED0E917349B1A47F6FF7249
:103B80009342CFF6FF7EB8BF1A461FFA8CF37245F8
:103B9000A4EB0303D8BF724613F5004F0A8042DD41
:103BA000B3F5004FA8BF47F6FF734B8053E000BF4B
:103BB0009AB2C36D9A1A47F6FF739A4248F2010E01
:103BC000A8BF1A461FFA8CF5CFF6FF7E7245D8BF04
:103BD0007246446E14440A80A5EB040CBCF5004FF9
:103BE0001EDB4B8037E000BF9AB248F2010ED0E9ED
:103BF00018359B1A47F6FF729342CFF6FF7EA8BF97
:103C000013461FFA8CF47345D8BF73461D444B808E
:103C1000A4EB050CBCF5004F0ADB0A801BE000BFDB
:103C20001CF5004F10DC48F20103A1F802E012E09D
:103C30001CF5004F0CDC48F20102A1F800E00AE09C
:103C40000A884B8807E000BF6346A1F802C002E083
:103C5000A1F800C06246D118A0F84A20A0F84C3064
:103C60004942A0F84E10B0BD70B5054641F20000C3
:103C70000C46C4F2000000214422002601F014F892
:103C800095F873000F2813D895F872100130AA6FB9
:103C900002EB8101CA69496B1268EB6D13FA82F27B
:103CA000EA6509682A6E85F8730012FA81F12966BF
:103CB000266070BD0000000070B5054641F20000AE
:103CC0000C46C4F2000000214422002600F0ECFF64
:103CD00095F873000F280DD895F872100130AA6F6F
:103CE00002EB8101496B09686A6E85F8730012FA6C
:103CF00081F16966266070BD0021A0F85010704700
:103D000090F8741001294FF0000102D180F874106E
:103D1000402108467047000070B5044690F84900FD
:103D2000012818BF70BD402000210022002500F0AE
:103D3000E7FEA06F90F8B700012802D0022805D155
:103D40000225402001212A4600F0DAFEB4F8700076
:103D500046F20005C4F2000500214208284600266C
:103D600001F05EFC80200021002200F0C9FEA06F5F
:103D700090F8B700012802D0022805D10226802041
:103D80000121324600F0BCFEB4F870000021420868
:103D900005F58050002501F043FC10200021002291
:103DA00000F0AEFEA06F90F8B700012802D0022804
:103DB00005D10225102001212A4600F0A1FEB4F809
:103DC00070000021002542084FF0402001F028FC3F
:103DD00044F2A92043F63931C0F60000C0F60001D4
:103DE000606144F21110616044F28111C0F600007C
:103DF000C0F60001C4E9020184F8495070BD00001A
:103E000070B5044690F8490048BB402000210022CC
:103E1000002500F075FE402001210222022600F05C
:103E20006FFE46F200000021C4F20000002201F003
:103E3000F7FBA06F90F8B700012803D002280BD140
:103E40000225002680200021324600F059FE802005
:103E500001212A4600F054FE102000F021FE43F616
:103E6000B17043F6D961C0F60000C0F60001606190
:103E700044F21110616043F63171C0F60000C0F6E3
:103E80000001C4E90201012084F8490070BD00006E
:103E9000B0B50446B0F87000002548430021020C7C
:103EA00046F20000C4F20000A28601F0B9FB032034
:103EB00084F83C004CF21000C4F200000068618FEE
:103EC000012903D101206587B0BD00BFC0F34000C8
:103ED000B0BD000000000000B0B5054641F2000092
:103EE0000C46C4F200000021442200F0DDFE95F8EB
:103EF0003C00A96F4FF6F072C0F20F0201EB800098
:103F0000296E406B006802EA0010081A47F6FF713C
:103F10008842B8BF014648F20100CFF6FF708142E7
:103F2000D8BF014621806180B0BD000000000000C4
:103F300070B50546806F01218468204600F0E0FEE0
:103F40000121204600F074FF0028F9D0012120460D
:103F500000F0D6FE41F200060021C4F20006012264
:103F600006F5A04001F05CFBB5F870000021421F8F
:103F7000304601F055FB00BF0121204600F058FFFC
:103F80000028F9D00121204600F0BAFE40F6FF706B
:103F900000F09EFD0121204600F0B2FE01212046E6
:103FA00000F0F6FE01212046BDE8704000F018BF89
:103FB00010B5806F002100228468204601F030FB9C
:103FC0000121204600F09CFE0121204600F030FF38
:103FD0000028F9D00121204600F092FE40F6FF7043
:103FE000BDE8104000F074BD70B50446042041F2F5
:103FF000104544F6F031E06694F8720084F83C0015
:10400000B4F87000C4F20005A28E461F68180021A3
:1040100001F006FBE28E45F6F0302844002101F065
:10402000FFFA228F4FF04020002101F0F9FAB2B2DE
:10403000A5F58260002101F0F3FA2868400703D457
:104040002868C0F3801000E00120618F012918BFAB
:1040500070BD00206087012070BD000000000000DE
:1040600070B50446C18FB0F87000A26F461AB6B2A0
:10407000B2F8AE309E4205D9032184F83C10451FAA
:1040800015E000BFB4F840504D1BADB2B5EB460F84
:1040900004D9B2F8B0000D1A09E000BF5D18A9B24A
:1040A000814204D3EA43402102EB4005E16641F23C
:1040B0001046A28EC4F2000644F6F03030440021CF
:1040C00001F0AEFAE28E45F6F0303044002101F006
:1040D000A7FA228F4FF04020002101F0A1FAAAB2E6
:1040E000A6F58260002101F09BFA3068400703D4F6
:1040F0003068C0F3801000E00120618F012918BFF3
:1041000070BD00206087012070BD0000000000002D
:10411000B0B50446022000F0C3FC41F200050020C7
:10412000C4F2000584F8440005F5A04000210022F7
:1041300001F076FA05F5C0400021002201F070FA86
:104140004FF040200021002201F06AFAB4F870001C
:104150000021421F284601F063FA4FF08040012100
:1041600000F0CEFD4FF08040012100F061FE0028FC
:10417000F8D0D020BDE8B04000F092BC00000000B4
:1041800070B50546806F41F20006B5F87010C4F2B4
:1041900000068468002085F844004A0806F5A0401F
:1041A000002101F03DFAB5F870000021420806F543
:1041B000C04001F035FAB5F87000002142084FF018
:1041C000402001F02DFAB5F870000021421F304662
:1041D00001F026FAD02000F07BFC022000F078FCF1
:1041E0000121204600F08CFD0121204600F020FE38
:1041F0000028F9D070BD0000F0B581B00446806F92
:104200000121D0E900751920FEF7B6F841F2000649
:104210000021C4F200064422304600F045FD07218B
:104220003846FCF769F907212846FCF765F994F848
:104230003C00A16F01EB8000B0F87C10B0F84C207E
:104240003846FCF72DFD94F83C00A16F01EB80008F
:10425000B0F89410B0F864202846FCF721FD94F8DB
:104260003C00A16F01EB8000B0F87C103846FCF7F1
:1042700077F994F83C00A16F01EB8000B0F894103E
:104280002846FCF76DF9E26E0021304601F09CF9FA
:104290000420E06619200021FEF76EF804F14800C2
:1042A00001B0F0BD0000000010B546F2000401218D
:1042B000C4F2000480F8441000210022204601F0DE
:1042C000AFF904F580500021002201F0A9F94FF068
:1042D00040200021002201F0A3F9D02000F0F8FBDB
:1042E0004FF08040012100F00BFD4FF08040012194
:1042F000BDE8104000F09CBD10B540F29871C2F2CC
:10430000000101EB8004606801790068FCF780F827
:10431000606881880068FCF71FFA0028F8D06068A0
:1043200081880068FCF790F9000180B210BD0000A0
:10433000B0B540F29874C2F200042078012818BF8A
:10434000B0BD607804EB8005686801790068FCF70F
:104350005FF800BF686881880068FCF7FDF90028F5
:10436000F8D0686881880068FCF76EF9657800010C
:1043700002222270608004EBC50151F8143F3BB16A
:104380004A6881B2002020702846BDE8B040184736
:10439000B0BD000000000000B0B540F2987CC2F251
:1043A000000CDCF80430002B1A4618BF4FF0FF3227
:1043B00007D099888488A14203D119680468A14272
:1043C00046D01C46002B18BF0124DCF808E0BEFADA
:1043D0008EF149090C4018BF0122BEF1000F09D02F
:1043E000BEF804108588A94204D1DEF800100568E3
:1043F000A94233D0002B18BF0123DCF80C105C401D
:10440000134618BF0223002918BF134607D08A8815
:104410008588AA4203D109680268914236D0D9B290
:104420001A460429DCF8101088BF0322002918BF9F
:104430001A4614D08B888588AB4210D1096803686E
:10444000994208BF0322D4B2032C0BD91CE000BF51
:104450000022D4B2032C05D916E000BF0122D4B249
:10446000032C11D80CEB840100230CEBC40205468D
:10447000486081885361036804221846FCF700F8FD
:10448000A9882868FCF76CF82046B0BD0222D4B297
:10449000032CE7D9F8E70000D0E90221022903D371
:1044A000036901391A4405E0012904D141684269D0
:1044B0004A430021C1604169826092FBF1F10846E4
:1044C00070470000000000002DE9F0470E4604464A
:1044D00062B3A0686169924690FBF1F8A6EB080907
:1044E000484603F031FE0746404603F02DFE0546E0
:1044F000304603F029FE2168AF4238BF3D4601FB3C
:104500000AF144F6D352C1F26202854228BF054641
:10451000A1FB0201012005FB09F2666000EB91108E
:1045200005FB08F192FBF0F208E000BF304603F013
:104530000BFE054600FB06F100200022C4E9021034
:10454000012022616561BDE8F087000000000000E5
:104550000021C0E90111C0E9031101214161704747
:10456000C068B0FA80F04009704700000000000009
:104570002DE9F041D0E91A750446C1804FF00008DA
:1045800080F8558080F858800E46A0F85380284661
:1045900003F0F6FC0021384601F0A6F9608870436C
:1045A00001B2284603F044FD00210022384601F004
:1045B00003F9208AA289704301B2384601F0FCF861
:1045C000E089A289704301B2284603F0EDFCA0897E
:1045D000218884F85780484344F6D351C1F26201E0
:1045E000A0FB0101012000EB9110A0806069A06098
:1045F000BDE8F08100000000818829B10139818087
:104600000A041CBF01207047816859B310B58A881D
:10461000C38803FB02F4836E0A8821B2044618465D
:1046200001F0CAF8A168E288488802FB00F30A8812
:10463000E06E19B203F0B8FCA16822880888896886
:10464000A160504344F6D352C1F26202A0FB0202C1
:10465000012000EB9212A28094F85820511C84F89B
:10466000581010BD0020704790F8491090F858205D
:1046700000208A4228BF012070470000000000008F
:1046800090F848007047000001EB410100EB810009
:10469000808970470000000001EB410100EB8100C0
:1046A000B0F90E007047000001EB410100EB810002
:1046B000B0F910007047000080B5C0E91B234269C3
:1046C0004FF0000C816602994167A0F854C06AB1AE
:1046D00092687AB192688AB192680423002A4FF0F6
:1046E000050204BF032304220AE000BF01220023C5
:1046F00006E000BF0222012302E000BF03220223E2
:1047000003EB430301884CF6CD4E80F8482000EBC4
:10471000830301FB0EF1C3F814C0C90C80F85610D6
:1047200080BD00000000000001EB410100EB8100B2
:10473000828170470000000001EB410100EB810025
:10474000C28170470000000001EB410100EB8100D5
:104750000282704700000000F0B581B0044690F876
:104760002600FFF7C9FD4FF6FF71884238D094F854
:1047700025C0226A4FF0000E22F81C00238B1BB3C9
:1047800000260025002100BF32F8167045F0010612
:10479000F6B29E42394418D232F8167045F002063D
:1047A000F6B29E42394410D232F8167045F0030634
:1047B000F6B29E42394408D232F816700435EEB291
:1047C0009E423944E0D300E000215A1EA080B1FB94
:1047D000F3F1E1806245C8BF0CF1010E84F825E0D9
:1047E000204600F005F8208101B0F0BD0000000077
:1047F000C188428B914201D902207047808B0022F0
:10480000814238BF01229000704700000000000084
:10481000418B828B038B11444FEA510C0BB380B553
:10482000026A0323043222F804CC991EB0F818E07F
:10483000714514D222F802CC591EB0F818E0714527
:104840003EBFA2F800C0018B8B4208D2A2F802C082
:10485000591CB0F818E0043308327145E3D3BDE8C1
:104860008040A0F804C00021A0F806C080F8251000
:10487000704700000000000010B504460C30FFF740
:104880008BFD84F826002046BDE81040FFF7C0BF2E
:1048900040F62010C2F20000D0F87401004700007A
:1048A00040F62010C2F20000D0F878010047000066
:1048B00040F62010C2F20000D0F87C010047000052
:1048C00040F62010C2F20000D0F88C010047000032
:1048D00040F62010C2F20000D0F89001004700001E
:1048E00040F62010C2F20000D0F89401004700000A
:1048F00040F62010C2F20000D0F8980100470000F6
:1049000040F62010C2F20000D0F8A00100470000DD
:1049100040F62010C2F20000D0F8A40100470000C9
:1049200040F62010C2F20000D0F8A80100470000B5
:1049300040F62010C2F20000D0F8AC0100470000A1
:1049400040F62010C2F20000D0F8880100470000B5
:1049500040F62010C2F20000D0F89C010047000091
:10496000B0F90C0070470000B0F904007047000077
:10497000B0F9100070470000B0F90C10B0F9140045
:10498000C1EBC13191FBF0F000B2704700000000B4
:1049900070B50B88448A027819B290F803C025B22A
:1049A000164683EAE1336245A3EBE131838A1FFABD
:1049B00081FEC18A9BB284EAE5343CBF0026013205
:1049C00089B29E45A4EBE53388BF1646048B8E451D
:1049D00099B238BF1646A14288BF1646F1B2B1EB74
:1049E0000C0118BF01210670084670BD00000000D0
:1049F00040F62010C2F20000D0F88C000047000002
:104A000040F62010C2F20000D0F8900000470000ED
:104A100040F62010C2F20000D0F8940000470000D9
:104A200040F62010C2F20000D0F8980000470000C5
:104A300040F62010C2F20000D0F838010047000014
:104A400040F62010C2F20000D0F834010047000008
:104A500040F62010C2F20000D0F8400100470000EC
:104A600040F62010C2F20000D0F83C0100470000E0
:104A700010B54CF2001C01F00302C4F2000C6FF000
:104A8000060303EA41014FF01F0E5CF822400EFAC4
:104A900001F324EA0303884018434CF8220010BDB8
:104AA00010B50446013840F6FF71884206D349F23A
:104AB000E310D221C0F6000003F01AFB4CF2100004
:104AC000C4F200000168A143016010BD00000000B5
:104AD00010B50446013840F6FF71884206D349F20A
:104AE000E310B921C0F6000003F002FB4CF2100005
:104AF000C4F2000001682143016010BD0000000005
:104B000070B57F2800F32680431E3F2B00F23380D0
:104B1000DFE803F040403140313131403131313153
:104B20003131314031313131313131313131313166
:104B30003131314031313131313131313131313156
:104B40003131313131313131313131313131313155
:104B500031313140B0F5007F08DB18BFB0F5806F10
:104B600018D0B0F5006F15D005E000BF802811D037
:104B7000B0F5807F0ED049F2E3130C46C0F6000377
:104B800040F64C1105461846164603F0B1FA284681
:104B90002146324690FAA0F04FF47873B0FA80F0D4
:104BA000082803EB800303F47F7338BF83004CF2C3
:104BB0006000C4F2000000F1040003EB41013CBFBF
:104BC0004CF26000C4F20000032306688B4026EA22
:104BD000030302FA01F11943016070BD00000000F7
:104BE00070B57F2A00F32680531E3F2B00F23380DE
:104BF000DFE803F040403140313131403131313173
:104C00003131314031313131313131313131313185
:104C10003131314031313131313131313131313175
:104C20003131313131313131313131313131313174
:104C300031313140B2F5007F08DB18BFB2F5806F2B
:104C400018D0B2F5006F15D005E000BF802A11D052
:104C5000B2F5807F0ED049F2E3130C46C0F6000394
:104C600040F6965105461846164603F041FA32467C
:104C70002146284692FAA2F24CF27003B2FA82F26E
:104C8000C4F20003002953F8226026F01F0526F421
:104C9000F85646EA002608BF45EA000643F82260B7
:104CA00070BD00000000000070B5044600F14040F7
:104CB0004FEA303015460C280E4615D2B5F1807FEC
:104CC00007D349F2E31040F6F141C0F6000003F0CB
:104CD0000FFA4FF48460002E08BF4FF48260215811
:104CE000A943215070BD00BF0F28E7D049F2E3105F
:104CF0004FF44F61C0F6000003F0FAF9DEE7000060
:104D0000B0B5044600F140404FEA30300D460C2863
:104D100012D2681E43F6FF71884207D349F2E310AE
:104D200040F22751C0F6000003F0E2F9D4F88C04F9
:104D30002843C4F88C04B0BD0F28EAD049F2E31030
:104D400040F22651C0F6000003F0D2F9E1E700007E
:104D500000F140414FEA31310C2903D20021C0F863
:104D6000001270470F29F9D010B549F2E31240F64E
:104D70007531C0F600020446104603F0B9F920462A
:104D8000BDE810400021C0F800127047000000008C
:104D9000B0B5044600F140404FEA30300D460C28D3
:104DA00010D2B5F1807F07D349F2E3104FF4B2611E
:104DB000C0F6000003F09CF9D4F830042843C4F88E
:104DC0003004B0BD0F28ECD049F2E31040F28F510F
:104DD000C0F6000003F08CF9E3E7000000000000DB
:104DE000B0B5044600F140404FEA30300D460C2883
:104DF00012D2681E43F6FF71884207D349F2E310CE
:104E000040F29A41C0F6000003F072F9D4F8800431
:104E10002843C4F88004B0BD0F28EAD049F2E3105B
:104E200040F29941C0F6000003F062F9E1E70000AA
:104E3000B0B500F140424FEA32320C2A80F0428095
:104E40007F2900F327804A1E3F2A00F25180DFE8C5
:104E500002F05C5C4F5C4F4F4F5C4F4F4F4F4F4FDA
:104E60004F5C4F4F4F4F4F4F4F4F4F4F4F4F4F4F45
:104E70004F5C4F4F4F4F4F4F4F4F4F4F4F4F4F4F35
:104E80004F4F4F4F4F4F4F4F4F4F4F4F4F4F4F4F32
:104E90004F5C00BFB1F5806F0ADBB1F5805F23DAAC
:104EA000B1F5806F31D0B1F5006F2ED020E000BF9A
:104EB000802918BFB1F5807F27D0B1F5007F24D0BD
:104EC00016E000BF0F2A3FF4BBAF49F2E3120C46D5
:104ED000C0F6000240F245510546104603F008F9BD
:104EE00021462846ACE700BF0FD0B1F5005F0CD0DB
:104EF00049F2E3120C46C0F6000240F24651054664
:104F0000104603F0F5F821462846D0F894040840EE
:104F100018BF0120B0BD0000B0B5044600F140400C
:104F20004FEA30300D460C2880F0EE80A88DB0F5A9
:104F3000804F73D2E88DB0F5804F7BD2D5F8020058
:104F4000B0F5800F80F08480D5F80600B0F5800FB2
:104F500080F08C80D5F80A00B0F5800F80F0948046
:104F6000D5F80E00B0F5800F80F09C80A87C20283A
:104F700080F0A480E87C202880F0AC80287D202868
:104F800080F0B480687D202807D349F2E31040F216
:104F90004621C0F6000003F0ABF82878697841EAB2
:104FA00040002064D5F80200A97C41EA401060640A
:104FB000D5F80600E97C41EA4010A064D5F80A0063
:104FC000297D41EA4010E064D5F80E00697D41EA90
:104FD00040102065D5F81A006065D5F81E00A06560
:104FE000D5F82200E065D5F8260020664CF20001D5
:104FF000606ECFF6FE71AA8D95F82A3008401043F6
:1050000040EA03406066A06EEA8D95F82B300840B8
:10501000104340EA0340A066B0BD00BF49F2E31070
:1050200040F23D21C0F6000003F062F8E88DB0F5D3
:10503000804F83D349F2E31040F23E21C0F60000D6
:1050400003F056F8D5F80200B0F5800FFFF47CAFFE
:1050500049F2E31040F23F21C0F6000003F048F8A7
:10506000D5F80600B0F5800FFFF474AF49F2E310F5
:105070004FF41071C0F6000003F03AF8D5F80A00BA
:10508000B0F5800FFFF46CAF49F2E31040F241211C
:10509000C0F6000003F02CF8D5F80E00B0F5800F34
:1050A000FFF464AF49F2E31040F24221C0F6000081
:1050B00003F01EF8A87C2028FFF45CAF49F2E3104F
:1050C00040F24321C0F6000003F012F8E87C2028EB
:1050D000FFF454AF49F2E3104FF41171C0F6000031
:1050E00003F006F8287D2028FFF44CAF49F2E310C6
:1050F00040F24521C0F6000002F0FAFF687D20284A
:10510000BFF443AF49E700BF0F283FF40FAF49F2A8
:10511000E3104FF40F71C0F6000002F0E9FF05E75D
:10512000002181820161C160816041600160C0F83D
:105130001A10C0F81E10C0F82210C0F82610C0F8CF
:105140002A10C1857047000070B5064600F1404046
:105150004FEA30300D460C2880F0D880288BB0F50F
:10516000804F6FD22889B0F5804F77D26889202888
:1051700080F08080A888B0F5804F80F08880E88833
:10518000202880F09080A88AB0F5804F80F0988029
:10519000E88A202880F0A080288AB0F5804F80F02F
:1051A000A880688A202807D349F2E3104FF43071B1
:1051B000C0F6000002F09CFFD6F87001E97B43F2D4
:1051C0003772AB7B90436A7B2C7B40EA0130E978F5
:1051D00040EA8320AB7840EA42206A7840EA042023
:1051E00040EA0110297840EA830040EA420008437F
:1051F000C6F87001A888E98841EA4010C6F8740131
:105200002889698941EA4010C6F87801288A698AA4
:1052100041EA4010C6F87C01A88AE98A41EA4010B8
:10522000C6F880014CF20001D6F88401CFF6FE7179
:105230002A8BAB7E0840104340EA0340C6F8840145
:1052400070BD00BF49F2E3104FF42E71C0F60000AC
:1052500002F04EFF2889B0F5804F87D349F2E31062
:1052600040F2B921C0F6000002F042FF6889202810
:10527000FFF480AF49F2E31040F2BA21C0F600001B
:1052800002F036FFA888B0F5804FFFF478AF49F2FE
:10529000E31040F2BB21C0F6000002F029FFE888CD
:1052A0002028FFF470AF49F2E3104FF42F71C0F6DD
:1052B000000002F01DFFA88AB0F5804FFFF468AF30
:1052C00049F2E31040F2BD21C0F6000002F010FFE9
:1052D000E88A2028FFF460AF49F2E31040F2BE21D3
:1052E000C0F6000002F004FF288AB0F5804FFFF4FA
:1052F00058AF49F2E31040F2BF21C0F6000002F0BF
:10530000F7FE688A2028BFF44FAF55E70F283FF417
:1053100025AF49F2E31040F2B721C0F6000002F0D9
:10532000E7FE1BE7000000000021C0F817104161F4
:105330000161C16081604160016070470000000050
:10534000B0B500F140424FEA32320C2A36D2D0F8E2
:10535000102291F802C040F6637591F800E0AA436C
:10536000CD7842EA8C224B780C7942EA0E2242EA4E
:1053700045021A4342EA4412C0F810224A79D0F892
:10538000103223F01003002A18BF1033C0F8103277
:105390008A79D0F8103223F00803002A18BF0833A6
:1053A000C0F81032C979D0F8102222F00402002986
:1053B00018BF0432C0F81022B0BD00BF0F2AC6D0FB
:1053C00049F2E3120C46C0F6000240F68A21054677
:1053D000104602F08DFE21462846B8E70000000086
:1053E0000021416001607047B0B5044600F14040C3
:1053F0004FEA30300D460C2880F09A80688AB0F56C
:10540000804F55D2A88AB0F5804F5DD295F917002C
:10541000B0F1FF3F65DD95F91800B0F1FF3F6DDD9C
:105420002868B0F5800F75D22879202808D349F272
:10543000E31040F2E311C0F6000002F059FE2879B3
:10544000296840EA41102061E0696979AA7B20F06F
:1054500033002B7C40EA0110E97B40EA421040EA2D
:1054600043000843E061A06A47F67F71EA7D2B7E26
:1054700088434CF200011043CFF6FE7140EA03204E
:10548000A062206A6A8A6B7C0840104340EA0340AD
:105490002062606AAA8AAB7D0840104340EA03405C
:1054A0006062D5F806006061D5F80A00A061B0BD61
:1054B00049F2E3104FF4EF71C0F6000002F018FE5D
:1054C000A88AB0F5804FA1D349F2E31040F2DF1172
:1054D000C0F6000002F00CFE95F91700B0F1FF3F96
:1054E00099DC49F2E3104FF4F071C0F6000002F0CD
:1054F000FFFD95F91800B0F1FF3F91DC49F2E31090
:1055000040F2E111C0F6000002F0F2FD2868B0F5AB
:10551000800F89D349F2E3104FF4F171C0F6000017
:1055200002F0E6FD28792028BFF481AF88E700BFAC
:105530000F283FF463AF49F2E31040F2DD11C0F6EB
:10554000000002F0D5FD59E70021017641610161BB
:10555000C160816041600160704700000000000090
:1055600070B5044600F140404FEA303015460C2833
:105570000E461DD2B6F1804F07D349F2E31040F634
:10558000CE51C0F6000002F0B3FD96FAA6F1D4F8B1
:105590003C04B1FA81F120F4F85220F01F00002DF4
:1055A00042EA012208BF40EA0102C4F83C2470BD6F
:1055B0000F28DFD049F2E31040F6CD51C0F60000CD
:1055C00002F096FDD6E7000070B5044600F14040B9
:1055D0004FEA303015460C280E4615D2B5F1807FC3
:1055E00007D349F2E31040F6C241C0F6000002F0D2
:1055F0007FFD4FF48460002E08BF4FF48260215875
:105600002943215070BD00BF0F28E7D049F2E310B5
:1056100040F6C141C0F6000002F06AFDDEE700007E
:1056200070B5044600F140404FEA303015460C2872
:105630000E461BD2B5F5800F07D349F2E31040F2B6
:105640000A31C0F6000002F053FD072E2DD8DFE826
:1056500006F0052D1B231935372B00BF606C6FF347
:105660005A1040EA4510606470BD00BF0F28E1D0B9
:1056700049F2E31040F20931C0F6000002F038FDB3
:10568000D8E700BF656570BDE06C6FF35A1040EA63
:105690004510E06470BD00BF206D6FF35A1040EA02
:1056A0004510206570BD00BF256670BDA06C6FF30E
:1056B0005A1040EA4510A06470BD00BFA56570BDDA
:1056C000E56570BD00000000F0B581B000F1404715
:1056D0004FEA373CBCF10C0F24D259B1162A15D130
:1056E000D0F83C1121F00C0141EA8301C0F83C11D3
:1056F00001B0F0BD162A0FD1D0F83C1121F0030102
:105700001943C0F83C1101B0F0BD00BF00EB8200AE
:10571000C0F8E03001B0F0BD00EB8200C0F880308E
:1057200001B0F0BDBCF10F0FD7D049F2E31C0C461D
:10573000C0F6000C40F26141054660461E46174621
:1057400002F0D6FC21463A4633462846C5E700001B
:1057500070B5044600780422002808BF0822E168DA
:105760000229A55804D3A2690139154405E000BFF8
:10577000012903D161880D040021E160E9170128A6
:1057800005EB11414FEA21400BD1616906460846FD
:10579000FFF7E6F8311A206909B2FDF79DFF656051
:1057A0000504A56070BD00000178012918BF70478D
:1057B00000690021FDF780BF70B5044600780D46F2
:1057C00040B1E08B854203DCB4F92400854211DA54
:1057D000002070BD2046164600F066F8B4F9281087
:1057E0008D424FF0000103DBE28C9542324611DD21
:1057F000084670BD6068238CC1179D4200EB1140C4
:105800004FEA204006DAB4F922108D4202DD002072
:1058100070BD00BFA2B1A18B281A0004658051435E
:1058200044F6D352C1F26202A1FB0212012101EB44
:105830009211E16090FBF1F00121A061084670BD7A
:105840002078082101284FEA054008BF0421605054
:105850000020E0600121A061084670BD000000004A
:1058600010B504464069FFF77BF80004606010BD86
:10587000D0F82E0070470000C08B70470000000079
:105880004068C11700EB1140001470470000000091
:10589000B0F92C0070470000B0F9240070470000F8
:1058A00040697047000000008068C11700EB11409C
:1058B000001470470000000080B5B0F82CC090F8CC
:1058C0002A30B0F82EE003704FEA0C4343604FEAF1
:1058D0000E43836000234380C0E90331C0E9052300
:1058E00080BD00000000000001700021C160704711
:1058F00041617047000000000021C1608161704774
:1059000001780B2903D10922027000228280A1F1C3
:105910000B00B0FA80F04009704700000000000062
:1059200080B5B0F802C003464FF6FF7E00784CEA1F
:10593000010C82EA0E0202EA0C02B3F804C00A2843
:105940005A8041EA0C01998006D1002A1CBF0A2026
:1059500080BD0B20187080BD002A08BF80BD0A20C2
:10596000187080BD000000004188808840EA014036
:105970007047000000000000007870470000000041
:1059800040F62010C2F20000D0F8BC010047000031
:1059900040F62010C2F20000D0F8C001004700001D
:1059A00000210170C0F802107047000000000000E4
:1059B00010B50278142A00F2C480DFE812F0AD00BE
:1059C0009D00150059006F00BD001500CF000901B2
:1059D000FB00C200C2004900850069003900DD00FB
:1059E000EB00250117011D000024012918BF032920
:1059F00040F01681204610BD4A1E112A00F2168181
:105A00000024DFE812F01300130113001301130147
:105A100013010F01130113011301130113011301EA
:105A200013011301130113010F0100BFE2E700BFCF
:105A30004A1E062A00F2FA800024DFE812F007006E
:105A4000F3000700F700F700F700F300D2E700BF0C
:105A5000072900F2EB800024DFE811F0E4000800E1
:105A6000E8000800E800E800E8000800C2E700BF1E
:105A7000112900F2DB80012292238A40C0F2030345
:105A80001A4240F0CF80032904BF002010BDCDE0B2
:105A900001F0F702072A54D1C4E000BF4A1ED3B276
:105AA000D20142EA5302D2B2092A00F2BF80012396
:105AB00003FA02F212F4037F40F0B48091071CBF96
:105AC000002010BDB2E000BF4A1E0D2A00F2AE80D9
:105AD0000024DFE812F00F00AB000F00AB00AB00BA
